{
  "_format": "hh-sol-artifact-1",
  "contractName": "BiometricAuditLog",
  "sourceName": "contracts/BiometricAuditLog.sol",
  "abi": [
    {
      "anonymous": false,
      "inputs": [
        {
          "indexed": true,
          "internalType": "uint256",
          "name": "logIndex",
          "type": "uint256"
        },
        {
          "indexed": true,
          "internalType": "bytes32",
          "name": "userIdHash",
          "type": "bytes32"
        },
        {
          "indexed": false,
          "internalType": "enum BiometricAuditLog.EventType",
          "name": "eventType",
          "type": "uint8"
        },
        {
          "indexed": false,
          "internalType": "uint64",
          "name": "timestamp",
          "type": "uint64"
        },
        {
          "indexed": false,
          "internalType": "bytes32",
          "name": "metaHash",
          "type": "bytes32"
        }
      ],
      "name": "LogRecorded",
      "type": "event"
    },
    {
      "inputs": [
        {
          "internalType": "bytes32",
          "name": "userIdHash",
          "type": "bytes32"
        },
        {
          "internalType": "enum BiometricAuditLog.EventType",
          "name": "eventType",
          "type": "uint8"
        },
        {
          "internalType": "uint64",
          "name": "timestamp",
          "type": "uint64"
        },
        {
          "internalType": "bytes32",
          "name": "metaHash",
          "type": "bytes32"
        }
      ],
      "name": "addLog",
      "outputs": [],
      "stateMutability": "nonpayable",
      "type": "function"
    },
    {
      "inputs": [
        {
          "internalType": "uint256",
          "name": "index",
          "type": "uint256"
        }
      ],
      "name": "getLog",
      "outputs": [
        {
          "internalType": "bytes32",
          "name": "",
          "type": "bytes32"
        },
        {
          "internalType": "enum BiometricAuditLog.EventType",
          "name": "",
          "type": "uint8"
        },
        {
          "internalType": "uint64",
          "name": "",
          "type": "uint64"
        },
        {
          "internalType": "bytes32",
          "name": "",
          "type": "bytes32"
        }
      ],
      "stateMutability": "view",
      "type": "function"
    },
    {
      "inputs": [
        {
          "internalType": "uint256",
          "name": "",
          "type": "uint256"
        }
      ],
      "name": "logs",
      "outputs": [
        {
          "internalType": "bytes32",
          "name": "userIdHash",
          "type": "bytes32"
        },
        {
          "internalType": "enum BiometricAuditLog.EventType",
          "name": "eventType",
          "type": "uint8"
        },
        {
          "internalType": "uint64",
          "name": "timestamp",
          "type": "uint64"
        },
        {
          "internalType": "bytes32",
          "name": "metaHash",
          "type": "bytes32"
        }
      ],
      "stateMutability": "view",
      "type": "function"
    },
    {
      "inputs": [],
      "name": "totalLogs",
      "outputs": [
        {
          "internalType": "uint256",
          "name": "",
          "type": "uint256"
        }
      ],
      "stateMutability": "view",
      "type": "function"
    }
  ],
  "bytecode": "0x608060405234801561001057600080fd5b5061049a806100206000396000f3fe608060405234801561001057600080fd5b506004361061004c5760003560e01c80633206b2c61461005157806345530af01461007d578063e4ce066214610092578063e79899bd146100a3575b600080fd5b61006461005f366004610324565b6100b6565b6040516100749493929190610375565b60405180910390f35b61009061008b3660046103a5565b6101c0565b005b600054604051908152602001610074565b6100646100b1366004610324565b6102dc565b60008060008060008054905085106101095760405162461bcd60e51b8152602060048201526012602482015271496e646578206f7574206f662072616e676560701b604482015260640160405180910390fd5b600080868154811061011d5761011d6103fe565b9060005260206000209060030201604051806080016040529081600082015481526020016001820160009054906101000a900460ff1660038111156101645761016461033d565b60038111156101755761017561033d565b81526001820154610100900467ffffffffffffffff16602080830191909152600290920154604091820152825191830151908301516060909301519199909850919650945092505050565b600060405180608001604052808681526020018560038111156101e5576101e561033d565b815267ffffffffffffffff8516602080830191909152604090910184905282546001818101855560009485529382902083516003928302909101908155918301518285018054949593949193909260ff1990921691849081111561024b5761024b61033d565b021790555060408201516001808301805467ffffffffffffffff9093166101000268ffffffffffffffff001990931692909217909155606090920151600290910155600054859161029b91610414565b7fadede93dbfb51cdeb029f6f00059b4964d49af850b09946a04c0a01a7708e7348585856040516102ce9392919061043b565b60405180910390a350505050565b600081815481106102ec57600080fd5b600091825260209091206003909102018054600182015460029092015490925060ff821691610100900467ffffffffffffffff169084565b60006020828403121561033657600080fd5b5035919050565b634e487b7160e01b600052602160045260246000fd5b6004811061037157634e487b7160e01b600052602160045260246000fd5b9052565b848152608081016103896020830186610353565b67ffffffffffffffff9390931660408201526060015292915050565b600080600080608085870312156103bb57600080fd5b843593506020850135600481106103d157600080fd5b9250604085013567ffffffffffffffff811681146103ee57600080fd5b9396929550929360600135925050565b634e487b7160e01b600052603260045260246000fd5b8181038181111561043557634e487b7160e01b600052601160045260246000fd5b92915050565b606081016104498286610353565b67ffffffffffffffff9390931660208201526040015291905056fea2646970667358221220fa267b60219d0196a92ffb83f9abb9c7afd8dd95703409610484a063aa1fc66a64736f6c63430008140033",
  "linkReferences": {},
  "deployedLinkReferences": {}
}